:020000040800F2
:1000000048040020450100085D2200085F22000826
:1000100063220008672200086B220008000000002D
:100020000000000000000000000000006F22000837
:1000300071220008000000007322000875220008E9
:100040005F0100085F0100085F0100085F01000810
:100050005F0100085F0100085F0100085F01000800
:100060005F0100085F0100085F0100085F010008F0
:100070005F0100085F0100085F0100085F010008E0
:100080005F0100085F0100085F0100085F010008D0
:100090005F0100085F0100085F0100085F010008C0
:1000A0005F0100085F0100085F0100085F010008B0
:1000B0005F0100085F0100085F0100085F010008A0
:1000C0005F0100085F0100085F0100085F01000890
:1000D0005F010008772200085F0100085F01000847
:1000E0005F0100085F0100085F0100085F01000870
:1000F0005F0100085F0100085F0100085F01000860
:100100005F0100085F0100085F0100085F0100084F
:10011000D12300085F0100085F0100085F010008AB
:100120005F0100085F0100085F0100085F0100082F
:10013000DFF80CD002F016FF004800470522000847
:10014000480400200648804706480047FEE7FEE7CF
:10015000FEE7FEE7FEE7FEE7FEE7FEE7FEE7FEE777
:1001600047020008310100080CB500200190009002
:100170006C48006840F480306A49086000BF6948F4
:10018000006800F4003000900198401C0190009835
:1001900018B90198B0F5A06FF1D16248006800F479
:1001A000003010B10120009001E000200090009884
:1001B000012843D15C48006840F010005A490860AB
:1001C0000846006820F0030008600846006840F018
:1001D0000200086053484068524948600846406839
:1001E00048600846406840F48060486008464068BF
:1001F00020F47C1048600846406840F4E8104860ED
:100200000846006840F08070086000BF45480068FC
:1002100000F000700028F9D04248406820F0030048
:10022000404948600846406840F00200486000BF0E
:100230003C48406800F00C000828F9D10CBD10B50E
:10024000FFF792FF10BD10B53648006840F001007E
:1002500034490860084640683449084031494860DC
:1002600008460068324908402E4908600846006880
:1002700020F4802008600846406820F4FE004860B2
:100280004FF41F008860FFF7DAFF4FF00060294944
:10029000086010BD10B5002100200022214B5B68D2
:1002A00003F00C0121B1042906D0082928D107E068
:1002B000214B224C236027E01F4B204C236023E07E
:1002C000184B5B6803F47010164B5B6803F48032C4
:1002D000022303EB904022B9194B4343174C236090
:1002E0000DE0104B5B6803F4003323B1144B434320
:1002F000124C236003E0104B4343104C236003E097
:100300000D4B0E4C236000BF00BF064B5B68C3F370
:1003100003130C4CE15C094B1B68CB40074C23607A
:1003200010BD000000100240002002400000FFF855
:10033000FFFFF6FE08ED00E000127A00000000204A
:1003400000093D000400002031490143314A116099
:10035000704770B5002100230F22C47804B32D4CE0
:10036000246804F4E064C4F5E064210AC1F10403E4
:10037000CA40447804FA03F1847814402143090107
:10038000254C0678A155047804F01F050124AC40E3
:1003900005786D11AD0005F1E025C5F8004109E0D3
:1003A000047804F01F050124AC401C4D067876113A
:1003B00045F8264070BD1A4A0A400243154B1B1FE0
:1003C0001A60704739B1134A121D12680243114B6B
:1003D0001B1D1A6006E00F4A121D126882430D4B66
:1003E0001B1D1A607047042808D14FF0E0210969ED
:1003F00041F004014FF0E022116107E04FF0E021ED
:10040000096921F004014FF0E022116170470000FA
:100410000000FA050CED00E000E400E080E100E0FF
:1004200080FFFF1F10B50446CC48844208D101214B
:10043000042000F02DFB0021042000F029FB46E001
:10044000C748844208D10121082000F021FB002187
:10045000082000F01DFB3AE0C248844208D1012187
:10046000102000F015FB0021102000F011FB2EE001
:10047000BD48844208D10121202000F009FB002161
:10048000202000F005FB22E0B848844208D1012179
:10049000402000F0FDFA0021402000F0F9FA16E0BB
:1004A000B348844208D10121802000F0F1FA0021F4
:1004B000802000F0EDFA0AE0AE48844207D1012125
:1004C000801500F0E5FA0021A01500F0E1FA10BD5A
:1004D00010B50121084600F0DBFA0021012000F0F0
:1004E000D7FA10BD2DE9F041024600250026002074
:1004F00000230024002791F803C00CF00F0591F8A9
:1005000003C00CF0100CBCF1000F03D091F802C036
:100510004CEA050591F800C0BCF1000F31D0146819
:1005200000202BE04FF0010C0CFA00F3B1F800C0F2
:100530000CEA03069E4220D183004FF00F0C0CFA08
:1005400003F7BC4305FA03FC4CEA040491F803C02A
:10055000BCF1280F06D14FF0010C0CFA00FCC2F8D8
:1005600014C00AE091F803C0BCF1480F05D14FF068
:10057000010C0CFA00FCC2F810C0401C0828D1D3B2
:100580001460B1F800C0BCF1FF0F34DD54680020E6
:100590002EE000F1080C4FF0010808FA0CF3B1F856
:1005A00000C00CEA03069E4221D183004FF00F0CDD
:1005B0000CFA03F7BC4305FA03FC4CEA040491F877
:1005C00003C0BCF1280F05D100F1080C08FA0CF8A3
:1005D000C2F8148091F803C0BCF1480F07D100F1B4
:1005E000080C4FF0010808FA0CF8C2F81080401C03
:1005F0000828CED35460BDE8F0814FF6FF7101802A
:10060000022181700421C170704702460020936866
:100610000B400BB1012000E00020704701468868C4
:1006200080B2704702460020D3680B400BB1012016
:1006300000E0002070470146C86880B27047016141
:100640007047416170470AB1016100E04161704744
:10065000C16070474FF480320A43826181618261D8
:1006600082698269704702460020434B18684FF642
:100670008073184040EA021008433F4B18607047EF
:100680003E49C8617047F0B50A46002300240021A6
:10069000002500F00046B6F1004F02D1364EF16958
:1006A00001E0354E7168C0F3034583B200F4401693
:1006B000B6F5401F08D121F070612F4E766826F004
:1006C00070662D4F7E6012E000F48016B6F5801F34
:1006D00006D1032606FA05F4A14341F0706106E055
:1006E000460D360103FA06F6B14341F0706122B1BE
:1006F000460D360103FA06F6314300F00046B6F126
:10070000004F02D11C4EF16101E01B4E7160F0BD43
:1007100030B500228B071C0F0F2303FA04F2164B8F
:1007200008338C1053F824309343134C08348D1045
:1007300044F8253023468C1053F824308C07240FBE
:1007400000FA04F423430C4C08348D1044F825308F
:1007500030BD0A49DC3108607047000000080140E4
:10076000000C01400010014000140140001801403D
:10077000001C014000200140000001400000204218
:10078000DF48006840F00100DD4908600846406825
:10079000DC490840DA49486008460068DA49084000
:1007A000D74908600846006820F4802008600846A1
:1007B000406820F4FE0048604FF41F0088607047D6
:1007C000CF49096821F48031CD4A1160114609688A
:1007D00021F480211160B0F5803F03D0B0F5802F67
:1007E0000ED106E0C649096841F48031C44A11605F
:1007F00007E0C349096841F4A021C14A116000E043
:1008000000BF00BF704710B5014600220023002042
:100810004A11012A02D1BA4C236806E0022A02D109
:10082000B74C236A01E0B64C636A01F01F02012451
:1008300094401C400CB1012000E0002010BD38B5F0
:10084000002000900024002500BF3120FFF7DBFFCF
:1008500005460098401C00900098B0F5A06F01D0AC
:10086000002DF2D03120FFF7CEFF08B1012400E0C7
:100870000024204638BD01460020A14A106820F01F
:10088000F80040EAC10010607047A0490860704756
:10089000024600209A4B586820F47C1042EA01037B
:1008A0001843974B5860704798490866704701464F
:1008B0000020934A506820F00300084350607047BE
:1008C0008F48406800F00C007047014600208C4AB9
:1008D000506820F0F0000843506070470146002047
:1008E000874A506820F4E060084350607047014632
:1008F0000020834A506820F4605040EAC1005060F4
:10090000704729B17E4A527A02437D4B5A7204E005
:100910007B4A527A82437A4B5A7270477B49D8316C
:100920000860704701460020754A506820F4404036
:100930000843506070470021714A20321170704A9C
:1009400082F82010012802D004280AD104E00121F5
:100950006B4A2032117005E00521694A203211707E
:1009600000E000BF00BF70476949086070476449F4
:10097000096A0143624A1162704765494439086057
:10098000704730B500210022002400235C4D6D68C3
:1009900005F00C0121B1042905D0082923D105E077
:1009A0005C4D056022E05B4D05601FE0544D6D68B5
:1009B00005F47012524D6D6805F48034022505EB84
:1009C00092421CB9544D554305600BE04C4D6D6887
:1009D00005F400351DB1504D5543056002E04D4D05
:1009E0005543056002E04B4D056000BF00BF444D1C
:1009F0006D6805F0F0010909484D6B5C0568DD4044
:100A000045603F4D6D6805F4E061090A434D6B5C3C
:100A10004568DD4085603A4D6D6805F46051C90A4E
:100A20003E4D6B5C4568DD40C560354D6D6805F435
:100A30004041890B3A4D6B5CC568B5FBF3F5056128
:100A400030BD29B12E4A526902432D4B5A6104E050
:100A50002B4A526982432A4B5A61704729B1284A6E
:100A600092690243264B9A6104E0254A92698243C7
:100A7000234B9A61704729B1214AD2690243204B26
:100A8000DA6104E01E4AD26982431D4BDA61704785
:100A900029B11B4AD2680243194BDA6004E0184AB4
:100AA000D2688243164BDA60704729B1144A126942
:100AB0000243134B1A6104E0114A12698243104B3E
:100AC0001A61704712494039086070470F49C8647D
:100AD00070470B49C87170470948406A40F0807000
:100AE00007494862704701460020054A92680A405B
:100AF0000AB1012000E00020704701498872704768
:100B0000001002400000FFF8FFFFF6FE0000424226
:100B10008004424200127A0000093D0014000020C7
:100B20002400002010B50446FE48844208D101216B
:100B3000C014FFF7ADFF0021E014FFF7A9FFC4E0E8
:100B4000B4F1804F08D101210846FFF7AEFF002124
:100B50000120FFF7AAFFB8E0F348844208D1012141
:100B60000220FFF7A2FF00210220FFF79EFFACE06A
:100B7000EE48844208D101210420FFF796FF0021AE
:100B80000420FFF792FFA0E0E948844208D1012148
:100B90000820FFF78AFF00210820FFF786FF94E076
:100BA000E448844208D101211020FFF77EFF002194
:100BB0001020FFF77AFF88E0DF48844208D1012146
:100BC0002020FFF772FF00212020FFF76EFF7CE05E
:100BD000DA48844208D101214014FFF759FF00216F
:100BE0006014FFF755FF70E0D548844209D1012118
:100BF000C804FFF74DFF00214FF40020FFF748FF26
:100C000063E0D048844209D101210805FFF740FF85
:100C100000214FF48010FFF73BFF56E0CA488442A2
:100C200009D101214805FFF733FF00214FF40010DF
:100C3000FFF72EFF49E0C548844208D1012140203A
:100C4000FFF733FF00214020FFF72FFF3DE0C048B2
:100C5000844208D101218020FFF727FF0021802056
:100C6000FFF723FF31E0BB48844208D10121801502
:100C7000FFF71BFF0021A015FFF717FF25E0B6487F
:100C8000844209D101210804FFF702FF00214FF43B
:100C90008030FFF7FDFE18E0B048844209D1012101
:100CA0004804FFF7F5FE00214FF40030FFF7F0FE97
:100CB0000BE0AB48844208D101218804FFF7E8FE2D
:100CC00000214FF48020FFF7E3FE10BD00220288D0
:100CD000944B98420ED0994B98420BD0B0F1804F74
:100CE00008D0914B984205D0904B984202D0904B3F
:100CF000984204D14FF68F731A404B881A438D4B9C
:100D0000984207D08C4B984204D04FF6FF431A40CC
:100D1000CB881A4302808B8883850B880385814B9F
:100D200098420BD0854B984208D08B4B984205D007
:100D30008A4B984202D08A4B984201D10B7A0386A3
:100D400001238382704770B5002400220023058CA4
:100D50004FF6FE7635400584028C8388048B4FF66F
:100D60008F752C40B51E2C400D882C43751E2A40D3
:100D70000D892A434D882A436A4DA8420BD06F4DF6
:100D8000A84208D0744DA84205D0744DA84202D0A4
:100D9000734DA84213D14FF6F7752A404D892A4367
:100DA0004FF6FB752A408D882A434FF6FF652B408E
:100DB0004FF6FF552B408D892B43CD892B438380E4
:100DC0000483CD888586028470BD70B5002400221E
:100DD0000023058C4FF6EF7635400584028C83881E
:100DE000048B48F6FF752C404FF6FF452C400D88CC
:100DF0004FF6FF7606EA05252C434FF6DF752A40AD
:100E00000D8906EA05152A434D8806EA05152A4389
:100E1000444DA84202D0494DA8421DD14FF67F75DE
:100E20002A404D894FF6FF7606EA05152A434FF60C
:100E3000BF752A408D8806EA05152A434FF6FF350F
:100E40002B404FF2FF752B408D8906EA85052B4319
:100E5000CD8906EA85052B4383800483CD880587E9
:100E6000028470BD70B5002400220023058C4FF66B
:100E7000FF6635400584028C8388848B4FF68F751E
:100E80002C404FF6FC752C400D882C434FF6FF5537
:100E90002A400D894FF6FF7606EA05252A434D883C
:100EA00006EA05252A431F4DA84202D0234DA84239
:100EB0001DD14FF2FF752A404D894FF6FF7606EAA5
:100EC00005252A434FF6FF352A408D8806EA052579
:100ED0002A434EF6FF752B404DF6FF752B408D894A
:100EE00006EA05152B43CD8906EA05152B438380B9
:100EF0008483CD888587028470BD70B5002200236D
:100F00000024058C4EF6FF7635400584038C8488DA
:100F1000828B48F6FF752A404FF6FF452A400D8820
:100F200020E00000002C01400004004000080040C8
:100F3000000C00400010004000140040003401404C
:100F4000004C014000500140005401400018004096
:100F5000001C0040002000400040014000440140CF
:100F6000004801404FF6FF7606EA05252A434DF674
:100F7000FF752B400D8906EA05352B434D8806EA9F
:100F800005352B43FA4DA84202D0FA4DA84208D1AC
:100F90004BF6FF752C408D894FF6FF7606EA8515D6
:100FA0002C4384808283CD88A0F84050038470BD98
:100FB000828B4FF2FF331A408283828B4FF6FF738E
:100FC00003EA01231A4382837047F0B50C461546A5
:100FD000002200210026078C4EF6FF7C07EA0C0752
:100FE0000784828B018C4FF6FF7707EA043640F6C0
:100FF000FF473A404FF6FF7707EA05273A434FF697
:10100000FF7707EA03373A43D94FB8420ED0D94F9A
:10101000B8420BD0B0F1804F08D0D74FB84205D0BE
:10102000D64FB84202D0D64FB84206D14DF6FF7720
:10103000394046F48057394305E047F6FF573940B9
:1010400044F48057394382830184F0BD828B4FF68C
:10105000F3731A408283828B0A4382837047F0B510
:101060000C461546002200210026078C4FF6FF6C27
:1010700007EA0C070784828B018C4FF6FF7707EA9B
:1010800004264FF60C773A404FF6FF7707EA03172E
:101090002F433A43B64FB8420ED0B64FB8420BD0AA
:1010A000B0F1804F08D0B44FB84205D0B34FB8422A
:1010B00002D0B34FB84206D14FF6FF57394046F43D
:1010C0008077394305E04FF2FF57394044F4807789
:1010D000394382830184F0BD028B4FF2FF331A4003
:1010E0000283028B4FF6FF7303EA01231A43028344
:1010F0007047F0B50C461546002200210026078CEB
:101100004FF6EF7C07EA0C070784028B018C4FF641
:10111000FF7707EA041640F6FF473A404FF6FF779D
:1011200007EA03373A434FF6FF7707EA05273A43C2
:101130008F4FB8420ED08F4FB8420BD0B0F1804FD6
:1011400008D08D4FB84205D08C4FB84202D08C4F9A
:10115000B84206D14FF6DF77394046F010073943E1
:1011600005E04FF65F77394044F0100739430283BA
:101170000184F0BD028B4FF6F3731A400283028B99
:101180000A4302837047F0B50C4615460022002141
:10119000068C4FF6FE773E400684028B018C4FF69C
:1011A0000C7632407E1C06EA03162E433243704E04
:1011B000B0420ED06F4EB0420BD0B0F1804F08D08D
:1011C0006D4EB04205D06D4EB04202D06C4EB04272
:1011D00006D14FF6FD76314044F00106314305E07B
:1011E0004FF6F576314044F0010631430283018425
:1011F000F0BD70B505460C465D4885420ED05D4891
:1012000085420BD0B5F1804F08D05B48854205D0B0
:101210005A48854202D05A48854200D100E000BFBA
:10122000208850B92389A28861882846FFF7ABFF40
:10123000E1882846FFF79EFF25E0208804280AD190
:101240002389A28861882846FFF753FFE188284652
:10125000FFF742FF17E0208808280AD12389A288D7
:1012600061882846FFF7FBFEE1882846FFF7EEFE7F
:1012700009E02389A28861882846FFF7A6FEE18855
:101280002846FFF795FE70BD2DE9F04105460C4656
:1012900000260127608808B9022600E00026A08801
:1012A000012801D1022700E001272088A0B9238965
:1012B000A28861882846FFF766FFE1882846FFF785
:1012C00059FF23893A4631462846FFF712FFE18845
:1012D0002846FFF701FF13E02389A288618828468A
:1012E000FFF707FFE1882846FFF7F6FE23893A4615
:1012F00031462846FFF747FFE1882846FFF73AFFC7
:10130000BDE8F0810A884B881A438B881A43CB8842
:101310001A430B891A434B891A438B891A43A0F845
:10132000442070474FF6FF71818000210180C18009
:101330004180017270470021018041808180C1801D
:10134000018141818181C1817047002101804180FB
:10135000012181800021C18001817047002101802D
:1013600041808180C180018141818181704700007D
:10137000002C0140003401400004004000080040FF
:10138000000C004021B1028842F00102028004E01A
:1013900002884FF6FE731A400280704731B1B0F8F0
:1013A000442042F40042A0F8442005E0B0F8442074
:1013B000C2F30E02A0F8442070471AB183890B4390
:1013C000838102E083898B438381704781827047E8
:1013D00041EA0203A0F8483070471AB183890B43F1
:1013E000838102E083898B438381704701894FF6B3
:1013F000F8721140018170470A46002101894FF6B9
:101400008F73194011430181704730B504460D4672
:1014100029462046FFF7F0FF208940F00700208191
:1014200030BD2DE9F04104460D4616461F46602D9D
:1014300006D13B46012231462046FFF75AFE05E021
:101440003B46012231462046FFF79DFE29462046B5
:10145000FFF7D2FF208940F007002081BDE8F0812E
:1014600030B50C4600210189C9B24FF6FF7505EA77
:101470000325154325432943018130BD2DE9F04162
:1014800005460E4617469846002443463A463146DE
:101490002846FFF7E5FF2C894FF6F870044044F02A
:1014A00007044FF68F70044044F070042C81BDE8AF
:1014B000F081F0B504460D4616461F463B463246BF
:1014C00029462046FFF7CCFF208940F48040208148
:1014D000F0BD0185828270470A46002101884FF6DF
:1014E0008F731940114301807047F0B50C461546C3
:1014F0001E460021002200230189028B038C4FF637
:10150000F877394021434FF6FC473A4040F2011743
:101510003A434FF6DD773B404FF6FF7707EA061771
:101520002F433B43018102830384F0BD0A4600211F
:10153000018B4FF68F7319401143018370470A46A0
:101540000021018B48F6FF7319404FF6FF7303EA41
:1015500002231943018370470A460021818B4FF60D
:101560008F7319401143818370470A460021818B94
:1015700048F6FF7319404FF6FF7303EA022319433D
:101580008183704721B1028842F08002028004E02A
:1015900002884FF67F731A400280704721B182881B
:1015A00042F00402828004E082884FF6FB731A4006
:1015B0008280704721B1828842F00802828004E074
:1015C00082884FF6F7731A408280704721B1828873
:1015D00042F00102828004E082884FF6FE731A40D6
:1015E000828070470A460021018B4FF6F77319403D
:1015F0001143018370470A460021018B4FF2FF73AC
:1016000019404FF6FF7303EA022319430183704721
:101610000A460021818B4FF6F773194011438183ED
:1016200070470A460021818B4FF2FF7319404FF635
:10163000FF7303EA02231943818370470A4600219E
:10164000018B4FF6FB7319401143018370470A4623
:101650000021018B4FF6FF3319404FF6FF7303EA69
:1016600002231943018370470A460021818B4FF6FC
:10167000FB7319401143818370470A460021818B17
:101680004FF6FF3319404FF6FF7303EA0223194365
:10169000818370470A460021018B4FF67F73194002
:1016A0001143018370470A460021018BC1F30E01EB
:1016B0004FF6FF7303EA02231943018370470A467A
:1016C0000021818B4FF67F7319401143818370474E
:1016D0000A460021818BC1F30E014FF6FF7303EA26
:1016E00002231943818370470A460021018C4FF67B
:1016F000FD7319401143018470470A460021018C93
:101700004FF6F77319401143018470470A460021D0
:10171000018C4FF6DF7319404FF6FF7303EA021393
:101720001943018470470A460021018C4FF67F73EC
:1017300019404FF6FF7303EA0213194301847047FF
:101740000A460021018C4FF6FF5319404FF6FF73F4
:1017500003EA02231943018470470A460021018CE1
:101760004FF2FF7319404FF6FF7303EA0223194348
:10177000018470470A460021018C4DF6FF73194021
:101780004FF6FF7303EA023319430184704730B503
:10179000002301248C40A3B2048C9C430484048C59
:1017A00002FA01F5ADB22C43048430BD30B50023FC
:1017B00004248C40A3B2048C9C430484048C02FA5D
:1017C00001F5ADB22C43048430BD70B50346002052
:1017D00000241846183001258D40ACB21D8CA5435D
:1017E0001D8409B1082909D100EB6100056825F0C5
:1017F000700505600568154305600EE00D1FC5F313
:101800004E052844056825F4E045056005684FF657
:10181000FF7606EA02263543056070BD21B10288D5
:1018200042F00202028004E002884FF6FD731A4083
:101830000280704721B1028842F00402028004E075
:1018400002884FF6FB731A400280704721B18288EC
:1018500042F08002828004E082884FF67F731A4053
:101860008280704702884FF6F7731A400280028820
:101870000A430280704782884FF68F731A40828035
:1018800082880A438280704702894FF6F8731A40B3
:10189000028102890A430281704702894FF67F73F1
:1018A0001A40028102890A4302817047818470478D
:1018B00081857047818670470187704781877047AF
:1018C000A0F84010704702884FF6FF431A4002808C
:1018D00002880A43028070470146888E704701469D
:1018E000088F70470146888F70470146B1F8400065
:1018F00070470146888C70470146088D7047024644
:101900000020138A0B400BB1012000E0002070473B
:10191000CA430282704730B50246002000230024EB
:10192000158A05EA0103958905EA010413B10CB192
:10193000012000E0002030BDCA4302827047000051
:1019400010B50446FB48844209D101218803FFF702
:101950009FF800214FF48040FFF79AF832E0F648F4
:10196000844209D101214804FFF79FF800214FF478
:101970000030FFF79AF825E0F048844209D10121B0
:101980008804FFF792F800214FF48020FFF78DF8CC
:1019900018E0EB48844209D10121C804FFF785F81B
:1019A00000214FF40020FFF780F80BE0E548844267
:1019B00008D101210805FFF778F800214FF48010C5
:1019C000FFF773F810BD2DE9F04786B005460E46C7
:1019D0000024A24600BFA1460027B08900B100BF85
:1019E0002F462C8A4CF6FF700440F08804432C826A
:1019F000AC894EF6F3100440B088318908437189F0
:101A000008430443AC81AC8A4FF6FF400440B089E0
:101A10000443AC8201A8FEF7B4FFC648874202D156
:101A2000DDF810A001E0DDF80CA0A88900F400406A
:101A300040B10AEBCA0000EB0A1031684900B0FB64
:101A4000F1F807E00AEBCA0000EB0A1031688900E0
:101A5000B0FBF1F86420B8FBF0F004012009642128
:101A600001FB1089A88900F4004040B1322000EB4E
:101A7000C900B0FBF1F000F00700044308E0322099
:101A800000EB09106421B0FBF1F000F00F000443FB
:101A90002C8106B0BDE8F0874FF41651016000219B
:101AA0008180C18001810C214181002181817047A9
:101AB00010B502460020108A4FF2FF0318400B8831
:101AC0004C8823438C882343CC88234318431082BB
:101AD00010BD0021018041808180C180704721B10B
:101AE000828942F40052828104E082894DF6FF73BC
:101AF0001A4082817047F0B5034600240026002575
:101B0000002040F66A17B94200D100BF1846C1F361
:101B1000421401F01F06012707FA06F5012C01D136
:101B20000C3004E0022C01D1103000E014301AB166
:101B300007682F43076002E00768AF430760F0BD06
:101B40001AB1838A0B43838202E0838A8B438382A8
:101B50007047028A4FF6F0731A400282028A0A43E3
:101B60000282704782894FF2FF731A408281828914
:101B70000A438281704721B1828942F00202828148
:101B800004E082894FF6FD731A4082817047028A11
:101B90004FF6DF731A400282028A0A4302827047BC
:101BA00021B1028A42F48042028204E0028A4BF6AA
:101BB000FF731A4002827047C1F3080282807047A7
:101BC00001468888C0F308007047818941F001010F
:101BD00081817047028BD2B20283028B42EA0122DA
:101BE00002837047028B02F47F420283028B0A4316
:101BF0000283704721B1828A42F02002828204E08F
:101C0000828A4FF6DF731A408282704721B1828A3E
:101C100042F01002828204E0828A4FF6EF731A408B
:101C20008282704721B1828A42F00802828204E0F7
:101C3000828A4FF6F7731A408282704721B18289F7
:101C400042F40042828103E08289C2F30E02828163
:101C5000704721B1828A42F40062828204E0828A63
:101C60004FF2FF731A4082827047828A4FF6FB73ED
:101C70001A408282828A0A438282704721B1828A14
:101C800042F00202828204E0828A4FF6FD731A401B
:101C90008282704702460020B1F5007F00D100BF6C
:101CA00013880B400BB1012000E00020704701F4C5
:101CB0000072B2F5007F00D100BFCA4302807047B6
:101CC00070B50246002400230025002040F66A1665
:101CD000B14200D100BFC1F3421501F01F0301263C
:101CE00006FA03F3012D02D19689334006E0022D56
:101CF00002D1168A334001E0968A33400C12012645
:101D000006FA04F41688344013B10CB1012000E047
:101D1000002070BD10B50022002340F66A14A142D5
:101D200000D100BF0A1201249440A3B2DC43048016
:101D300010BD000000380140004400400048004051
:101D4000004C004000500040002106E0002200E06E
:101D5000521CFE4B9A42FBD3491C8142F6D370477A
:101D6000002107E0002200E0521C4FF6FF739A4268
:101D7000FAD3491C8142F5D3704710B5F4A1F74856
:101D800000F06FFE1E20FFF7DFFFF5A1F34800F023
:101D900068FE0120FFF7D8FFF3A1F04800F061FED4
:101DA0000120FFF7D1FFF4A1EC4800F05AFE01201A
:101DB000FFF7CAFF10BD2DE9F04704468946924659
:101DC000254640F21450001B86B25746C84640F2E2
:101DD000E140854200DD0546F92D00DAF92540F2A3
:101DE000E140864200DD0646F92E00DAF926B7F515
:101DF0007A7F01DD4FF47A77EB2F00DAEB2740F2A0
:101E00007E40804500DD8046B8F52F7F01DA4FF433
:101E10002F7843463A463146284600F0F9FCBDE8A3
:101E2000F0872DE9F04F87B004460D4616469A46D6
:101E3000DDF848B00021084600F006FD324629468C
:101E40002046FFF7B8FF0120069005900490544506
:101E500001DA012701E04FF0FF371098854202DADE
:101E60004FF0010801E04FF0FF381198864202DA86
:101E70004FF0010901E04FF0FF393CE0544502DA30
:101E80000120039002E04FF0FF300390109885424C
:101E900002DA0120029002E04FF0FF300290119828
:101EA000864202DA0120019002E04FF0FF300190FB
:101EB0000398B84203D107FB0B4084B201E0002035
:101EC00006900298404503D108FB0B5085B201E013
:101ED000002005900198484503D109FB0B6086B2AC
:101EE00001E000200490324629462046FFF763FFB8
:101EF0000120FFF735FF06980028BFD1059800287C
:101F0000BCD104980028B9D107B0BDE8F08F0EB558
:101F100002204FF47A714FF42F724FF4C873CDE959
:101F2000002102900A464FF42F714FF47A70FFF7A8
:101F300078FF05204FF47A7140F24C424FF4C87399
:101F4000CDE9002102900A464FF42F711846FFF7A1
:101F500068FF02204FF47A7140F24C420B46CDE903
:101F6000002102900A464FF496614FF4C870FFF7C3
:101F700058FF0EBD0EB502204FF47A714FF49662F1
:101F80004FF4C873CDE9002102900A4640F24C415B
:101F90004FF47A70FFF745FF05204FF47A714FF444
:101FA0002F724FF4C873CDE9002102900A4640F227
:101FB0004C411846FFF735FF02204FF47A714FF479
:101FC0002F720B46CDE9002102900A464FF42F7183
:101FD0004FF4C870FFF725FF0EBD0EB502204FF479
:101FE0007A714FF42F724FF4C873CDE9002102903B
:101FF0000A464FF42F714FF47A70FFF712FF052055
:102000004FF47A7140F24C424FF4C873CDE900218D
:1020100002900A464FF42F711846FFF702FF032083
:10202000FA2140F24C424FF4C873CDE900210290EE
:102030008A0040F24C411846FFF7F3FE0EBD2DE931
:10204000F0415348007828B10021084600F0FCFB1D
:10205000BDE8F08100260024002500274D480068D7
:1020600000B900E001264B480830006808B9002498
:1020700000E0012447481030006808B9002500E05E
:10208000012544481830006808B9002700E00127FE
:102090000CB9012000E000200DB9012100E0002171
:1020A000084020B14FF4FA61084600F0CDFB012C46
:1020B00001D1012000E000200DB9012100E0002144
:1020C000084020B140F6B831484200F0BDFB0CB9E1
:1020D000012000E00020012D01D1012100E00021BC
:1020E000084018B12C49484200F0AEFB0EB901205F
:1020F00000E00020012F01D1012100E00021084073
:1021000010B32648007868B9012021490870234996
:10211000087023480078012804D1FFF72BFF002026
:102120001F4908701D480078022841D11C480078DA
:1021300002283AD1FFF751FF4FF47A724FF42F7112
:102140001046FFF738FE2DE032E00000FFFF1F00D1
:1021500041542B5253540D0A00000000004C004023
:10216000415445300D0A000041542B4349504D5510
:10217000583D310D0A00000041542B43495053454E
:10218000525645523D312C383038360D0A00000089
:10219000290000202481224248F4FFFF280000206B
:1021A0002A000020002027490870032026490870D3
:1021B000012E01D1012000E000200FB9012100E033
:1021C00000210840E0B120480078012811D11D48C5
:1021D0000078012801D1FFF79AFE1A4800780328F9
:1021E00004D1FFF7C7FE00201649087002201649E7
:1021F000087015480078032802D1002012490870A1
:1022000000BF25E700F062F900F07CFB00F0BEFBA8
:1022100000F080FCFFF7B1FD00F0EEFA00F0F2FAFA
:102220000AA000F03DFF4FF47A724FF42F71104670
:10223000FFF7C1FD0520FFF787FD01E0FFF7FFFE77
:10224000FCE700002A00002028000020BBFAC6F7A7
:10225000C8CBBECDD0F7A3A10A000000704700BFD5
:10226000FEE700BFFEE700BFFEE700BFFEE77047E6
:102270007047704770472DE9F84300240025002679
:10228000002740F225517E48FFF71AFD40B17C48F7
:10229000FFF796FC00F0FF0841467A4800F0BAFBD1
:1022A0007948007813287DD10A207849764A127837
:1022B000885408460078303800EB4001C1EBC0106C
:1022C00004EBC00471484078303800EBC00101EBEA
:1022D000001004EB80046D488078303800EB8000FB
:1022E00004EB40046948C0783038204484B2674821
:1022F0004079303800EB4001C1EBC01005EBC00560
:1023000062488079303800EBC00101EB001005EB2A
:1023100080055E48C079303800EB800005EB400551
:102320005A48007A3038284485B25848807A303884
:1023300000EB4001C1EBC01006EBC0065348C07A69
:10234000303800EBC00101EB001006EB80064F486F
:10235000007B303800EB800006EB40064B48407BAA
:102360003038304486B24948C07B303800EB4001F9
:10237000C1EBC01007EBC0074448007C303800EBCD
:10238000C00101EB001007EB80074048407C30386B
:1023900000EB800007EB40073C48807C3038384435
:1023A00087B200E012E0394800F07AFE33462A4650
:1023B000214637A0009700F073FE3B46324629467F
:1023C000204600F025FA00202F490870BDE8F88368
:1023D0003EB540F225512B48FFF772FC00284ED045
:1023E0002848FFF7EDFBC4B22146254800F012FB58
:1023F0002C480078012832D100202A490870214653
:1024000029A000F04DFE2BA11E4800F02AFB302C25
:1024100005D100202B49087001202B490870312C70
:1024200005D1002027490870022027490870322C66
:1024300015D102204FF47A7140F24C420B46CDE99F
:10244000002102900A464FF42F714FF47A70FFF783
:10245000E8FC00201B49087003201B490870612C10
:1024600001D1012000E000200E49097809B90121BD
:1024700000E00021084010B101200A4908703EBD6B
:1024800000380140004C00402B00002034000020A8
:102490002534642C2534642C2534642C2534640ABA
:1024A000000000002C0000200A436D643A25630DF3
:1024B0000A00000041542B434950434C4F53453DC3
:1024C000350D0A00290000202A00002008B501214E
:1024D0000820FEF7C3FA4FF40070ADF8000010209A
:1024E0008DF8030003208DF8020069460448FDF7CB
:1024F000F9FF4FF400710248FEF7A1F808BD000093
:10250000000C014008B501210420FEF7A7FA402085
:10251000ADF8000018208DF8030003208DF80200AC
:102520006946E048FDF7DEFF01210420FEF796FA38
:102530008020ADF8000018208DF8030003208DF8EE
:1025400002006946D748FDF7CDFF01210420FEF7C0
:1025500085FA0120ADF8000018208DF80300032053
:102560008DF802006946CF48FDF7BCFF0121042029
:10257000FEF774FA0220ADF8000018208DF8030071
:1025800003208DF802006946C648FDF7ABFF012124
:102590000420FEF763FA0420ADF8000018208DF83F
:1025A000030003208DF802006946BE48FDF79AFF3C
:1025B00001210420FEF752FA0820ADF8000018208F
:1025C0008DF8030003208DF802006946B548FDF739
:1025D00089FF08BD08B501210420FEF73FFA40201D
:1025E000ADF8000018208DF8030003208DF80200DC
:1025F0006946AD48FDF776FF01210420FEF72EFA6B
:102600008020ADF8000018208DF8030003208DF81D
:1026100002006946A448FDF765FF01210420FEF78A
:102620001DFA4FF48070ADF8000018208DF80300FB
:1026300003208DF8020069469B48FDF753FF0121F6
:102640000420FEF70BFA4FF40070ADF800001820DC
:102650008DF8030003208DF8020069469248FDF7CB
:1026600041FF08BD2DE9F04387B001210220FEF7AC
:1026700002FA01210846FEF7FEF942F20F70ADF8AA
:1026800014008F20ADF810000020ADF81600ADF852
:1026900012008DF8180004A98448FEF717FB04A95E
:1026A0004FF08040FEF712FB05240525052605277F
:1026B000A046A1466020ADF800000120ADF8020060
:1026C0000020ADF80800ADF8064069467748FEF7EF
:1026D0003AFB08217548FEF785FFADF806506946BC
:1026E0007248FEF772FB08217048FEF784FFADF8D0
:1026F00006606946A007FEF726FB0821C806FEF71C
:1027000071FFADF806706946A007FEF75EFB082171
:10271000C806FEF770FFADF806806946A007FEF711
:10272000A1FB0821C806FEF773FFADF806906946C5
:10273000A007FEF7E2FB0821C806FEF772FF0121A1
:102740005A48FEF71FFE01218807FEF71BFE07B05F
:10275000BDE8F083F0B587B001210420FEF78BF9C6
:1027600041F26F70ADF814000020ADF81000ADF824
:102770001600ADF812008DF8180004A94C48FEF7B9
:10278000A5FA05240525052605276020ADF80000DB
:102790000120ADF802000020ADF80800ADF80640B9
:1027A00069464348FEF7CFFA08214148FEF71AFF71
:1027B000ADF8065069463E48FEF707FB08213C4845
:1027C000FEF719FFADF8066069463948FEF74AFB87
:1027D00008213748FEF71CFFADF8067069463448FB
:1027E000FEF78BFB08213248FEF71BFF0121304822
:1027F000FEF7C8FD07B0F0BD10B5FFF783FEFFF789
:1028000031FF10BD10B5FFF7E5FEFFF7A3FF10BDC8
:102810002DE9F04104460F4615461E4621464FF06D
:102820008040FFF74DF839464FF08040FFF746F8FB
:1028300029464FF08040FFF73DF831464FF0804089
:10284000FFF73AF8BDE8F08170B504460D46002C5C
:1028500008DBA1B21648FFF733F800211448FFF750
:102860002DF809E0604204B2A1B21148FFF726F842
:1028700000210F48FFF724F8002D08DBA9B20C480F
:10288000FFF718F800210A48FFF716F809E0684238
:1028900005B2A9B20648FFF70FF800210448FFF778
:1028A00009F870BD00080140000C01400004004020
:1028B0000008004008B54FF4A060FDF745FD252055
:1028C0008DF8000001208DF801008DF802008DF8D0
:1028D00003006846FDF73DFD08BD08B54FF4A06054
:1028E000FDF732FD34208DF8000001208DF8010045
:1028F00002208DF8020001208DF803006846FDF7E4
:1029000028FD08BD00B585B001210420FEF7A6F81A
:1029100001218803FEF7A2F84FF40070ADF8100013
:1029200018208DF8130003208DF8120004A97548B3
:10293000FDF7D8FD4FF48060ADF8100004208DF84D
:10294000130004A96F48FDF7CDFD4FF4E13000906E
:102950000020ADF80400ADF80600ADF80800ADF8B1
:102960000C000C20ADF80A0069466748FFF72BF809
:10297000FFF7A0FF012240F225516348FFF7BBF8A3
:1029800001216148FFF7ABF805B000BD00B585B087
:1029900001211020FEF762F80121C804FEF76BF850
:1029A0004FF48060ADF8100018208DF8130003205C
:1029B0008DF8120004A95548FDF794FD4FF400600E
:1029C000ADF8100004208DF8130004A94F48FDF75E
:1029D00089FD4FF4E13000900020ADF80400ADF81F
:1029E0000600ADF80800ADF80C000C20ADF80A00A8
:1029F00069464748FEF7E7FFFFF76FFF012240F205
:102A000025514348FFF777F801214148FFF767F860
:102A100005B000BD70B504460D4629462046FFF7B7
:102A2000CBF800BF80212046FFF734F90028F9D009
:102A300070BD2DE9F04107460D461646002405E01D
:102A4000295D3846FFF7E6FF601CC4B2B442F7DBED
:102A500000BF40213846FFF71DF90028F9D0BDE836
:102A6000F08170B506460C46002500BF615D30461A
:102A7000FFF7D0FF6D1C605D0028F7D100BF40213B
:102A80003046FFF707F90028F9D070BD2DE9F04175
:102A900005460C46260AE7B231462846FFF78CF871
:102AA00000BF80212846FFF7F5F80028F9D0394605
:102AB0002846FFF781F800BF80212846FFF7EAF893
:102AC0000028F9D0BDE8F08170B504460D46E1B2AA
:102AD0000D48FFF79FFF00BF80210B48FFF7DAF892
:102AE0000028F9D0204670BD10B5044600BF202153
:102AF0000548FFF7CFF80028F9D00348FFF760F842
:102B000010BD0000000801400038014000100140E5
:102B1000004C004008B501212020FDF79FFF4FF435
:102B20002A40ADF8000004208DF8030069460E48E5
:102B3000FDF7D8FC4FF42A410B48FDF780FD08BD96
:102B400070B504460D4629462046FDF75EFD40B9A6
:102B500000BF29462046FDF758FD0028F9D0002087
:102B600070BD0120FCE700000014014030B50B46A9
:102B7000014600202022012409E021FA02F59D42AD
:102B800005D303FA02F5491B04FA02F52844151E81
:102B9000A2F10102F1DC30BD2DE9F05F0546002015
:102BA00092469B4688460646814640241BE02846BE
:102BB00041464746224600F0F6F953465A46C01AA7
:102BC000914110D311461846224600F0DDF92D1A26
:102BD00067EB01084F4622460120002100F0D4F99E
:102BE00017EB00094E41201EA4F10104DFDC48462A
:102BF00031462A464346BDE8F09F2DE9FE4F804608
:102C000081EA0300C00F0C46009021F0004123F040
:102C10000045B8EB0200A94105D240462146904646
:102C20001C460B46024623F00040104347D0270DB8
:102C3000C7F30A00C3F30A510290401A01904028DA
:102C40006BDAC3F3130040F4801B0098924620B166
:102C50000023D2EB030A63EB0B0B01985946C0F13A
:102C60004002504600F090F906460D46504659463F
:102C7000019A00F0A8F910EB08006141002487EAEE
:102C8000115284EAE7731A4340D0009A62B3019A62
:102C9000012A4FEA075215DC001B61EB02014FF0DD
:102CA000004202EA0752CDE90042001C41F58011C2
:102CB00032462B4600F0A6F903B0BDE8F08F40463F
:102CC0002146F9E7001B61EB0201001C41F580136E
:102CD00000185B412018A2F5001747EB030140EAFA
:102CE000D570B6196D4111E06D084FEA360645EA18
:102CF000C0754FEA0752001B61EB0201001C41F551
:102D0000801149084FEA30000019514132462B46E4
:102D100003B0BDE8F04F00F068B900980122400010
:102D20000023D0EB020263EBE073009821464FEAE8
:102D3000E074B8EB000061EB0401E9E783F00043C5
:102D40005BE781F0004158E72DE9FE4F81EA03047B
:102D500004F0004421F0004100944FF0000B23F0F8
:102D6000004350EA01045ED052EA03045BD0C3F38F
:102D70000A54C1F30A552C44A4F2F3340194A0FB85
:102D80000254C1F3130141F48011C3F3130343F45C
:102D9000801301FB024400FB034E840A970A44EAB5
:102DA000815447EA8357A4FB076802958D0A05FB07
:102DB00007854FEA932C04FB0C542705029D4FEA2C
:102DC000065847EA1637B5EB08056EEB070C870E79
:102DD000920E47EA811742EA8312A7FB0201B6EB83
:102DE0000B0164EB00042B0D43EA0C335E1844EB3B
:102DF0001C50DA465146E7FB0201C5F313044FEAC3
:102E00000B3343EA14534FEA0432019C43EA0603AE
:102E1000A4F10C040294009CCDE900B400F0F2F897
:102E200003B0BDE8F08F00200146F9E72DE9F04D31
:102E300081EA030404F0004B21F0004514464FF0F2
:102E4000000A23F0004150EA050220D054EA0102B2
:102E50001DD0C5F30A570246C5F31303C1F313008F
:102E6000C1F30A5640F4801543F48013A7EB06081B
:102E7000101BD64608F2FD3873EB050002D308F1AB
:102E8000010801E092185B41B8F1000F03DA00205D
:102E90000146BDE8F08D00204FF4801106468446BF
:102EA0000EE0171B73EB050705D3121B63EB05033D
:102EB00006434CEA010C49084FEA300092185B4186
:102EC00050EA0107EDD152EA030012D082EA040071
:102ED00083EA0501084305D0101BAB4106D201224D
:102EE000002306E000224FF0004302E06FF00102F1
:102EF00053101AEB06004CEB085110EB0A0041EBA3
:102F00000B01BDE8F04D00F070B8C1F30A52C1F3F7
:102F1000130140F2FF3341F480119A4202DA00209B
:102F20000146704740F233439A42A2F2334202DC38
:102F3000524200F038B800F027B8000030B5002940
:102F400004DB4FF00044404264EB0101002B04DB42
:102F50004FF00044524264EB0303994208BF904291
:102F600030BD0000064C074D06E0E06840F001036C
:102F700094E8070098471034AC42F6D3FDF7DCF82C
:102F80007439000894390008202A04DB203A00FA3A
:102F900002F1002070479140C2F1200320FA03F3B0
:102FA000194390407047202A04DB203A21FA02F0AE
:102FB0000021704721FA02F3D040C2F12002914073
:102FC000084319467047202A06DBCB17203A41FAFE
:102FD00002F043EAE07306E041FA02F3D040C2F1A6
:102FE0002002914008431946704710B5002B08DABB
:102FF000401C41F1000192185B411A4301D120F0BD
:10300000010010BD2DE9F04D92469B4611B1B1FA79
:1030100081F202E0B0FA80F220329046FFF7B4FF6E
:1030200004460F4640EA0A0041EA0B0153465A465D
:10303000084313D0114653EA010019D0C8F14002E9
:103040005046FFF7B0FF05460E46504659464246E9
:10305000FFF79AFF084305D0012004E020463946D7
:10306000BDE8F08D0020054346EAE0762C43374367
:103070000A986305E40AA0EB08000022FD0A44EA6E
:1030800047540A3002D500200146E9E7010510192E
:103090006941DDE9084500196941BDE8F04DA4E743
:1030A0000FB4054B10B503A9044A029800F0CAF802
:1030B00010BC5DF814FB0000C92A00083000002095
:1030C00002E008C8121F08C1002AFAD170477047F1
:1030D000002001E001C1121F002AFBD1704700004F
:1030E0002DE9FF5FDDE90220010DDDF838B0024374
:1030F00018D044F61050A1F2FF3141430D140F983F
:10310000012820D0A5EB0B00401C5FEA000A4FF01D
:103110000004474EDFF81C91A046504616D5CAF170
:10312000000728E00F98012443A2012808D00021BD
:1031300000980F9BC0E90021C0E90243BDE8FF9F52
:103140006FEA0B01F4E7CBF10000DEE7074612E07F
:10315000F80707D02246334640464946FFF7F4FDBC
:10316000804689462246334610461946FFF7ECFD55
:1031700004460E467F10002FEAD1DDE90201BAF1C4
:10318000000F42464B4602DAFFF7DEFD01E0FFF793
:103190004DFE04460E460022284BFFF7CFFE03D813
:1031A0004FF0FF30014607E00022254B2046314614
:1031B000FFF723FDFFF7A9FE102409E0002C0ADB2E
:1031C0000A220023FFF7E8FC019B30321A55641EE7
:1031D00050EA0102F2D1641C019AC4F111031444B3
:1031E0000F9A012A03D0012208430DD10AE00843B7
:1031F00004D000204FF0110B0F9080E7A3EB0B05DC
:103200006D1E0DE05B4504DD4FF0000205F1010588
:1032100004E003DA4FF00002A5F10105002AECD02A
:1032200000980F99C0E90231C0E9004586E7000027
:10323000000024400000F03F300000000000F04398
:103240000000E03F2DE9FF4F95B09B4689460646BA
:1032500000250FE2252877D100242746F84A0121CE
:10326000059400E0044316F8013F203B01FA03F007
:103270001042F7D130782A2811D06FF02F03307820
:10328000A0F13002092A16D8059A44F0020402EB94
:10329000820203EB42021044761C0590EFE759F8D6
:1032A000042B0592002A03DA504244F4005405909E
:1032B00044F00204761C30782E2816D116F8010F3F
:1032C00044F004042A280DD06FF02F023078A0F1CA
:1032D0003003092B09D807EB870302EB4303C71818
:1032E000761CF3E759F8047B761C30786C280FD0F5
:1032F00006DC4C2817D068280DD06A2814D104E0C9
:10330000742810D07A280FD10DE044F400140AE09C
:1033100044F4801401E044F440147278824202D1F3
:1033200004F58014761C761C307866280BD013DCEC
:10333000582877D009DC002875D04528F6D04628D3
:10334000F4D047281AD19DE118E0632835D06428CD
:1033500079D0652812D195E1702873D008DC6728F0
:10336000F1D069286FD06E280DD06F2806D1B5E056
:1033700073282CD0752875D0782874D05A461799A0
:1033800090476D1C75E1C4F30250022809D0032850
:103390000DD0D9F8001004280DD00D6009F10409F2
:1033A00067E1D9F80010EA17C1E90052F6E7D9F849
:1033B00000100D80F2E70D70F0E719F8041B8DF88E
:1033C000001000208DF80100EA46012003E059F8C2
:1033D00004AB4FF0FF3061074FF0000102D40DE065
:1033E00008F101018846B9420FDA8045F8DB1AF886
:1033F00008100029F4D108E008F101018846814253
:10340000FADB1AF808100029F6D105985B46A0EB04
:10341000080721463846179A00F094FA284400EB32
:10342000080507E04DE029E10DE01AF8010B5A46C6
:1034300017999047B8F10108F7D25B462146384604
:10344000179A13E142E00A220092C4F302524FF0AD
:10345000000A022A08D059F804CB032A4FEAEC717B
:103460000AD00DE029E02AE009F1070121F0070266
:10347000F2E802C1914609E00FFA8CFC4FEAEC71C8
:10348000042A03D14FFA8CFC4FEAEC71002907DAC9
:103490000A460021DCF1000C61EB02012D2202E062
:1034A000220504D52B228DF80420012203E0E20737
:1034B00001D02022F7E7904659E00A2102E01022CD
:1034C0000DE010214FF0000A00910BE010224FF0A8
:1034D000000A44F004040827009203E008224FF099
:1034E000000A0092C4F30252022A05D059F804CB14
:1034F0000021032A08D009E009F1070121F00702A1
:10350000F2E802C1914605E01FFA8CFC042A01D1C1
:103510000CF0FF0C4FF00008220728D5702806D0C9
:10352000009B83F0100353EA0A0305D00EE040220B
:103530008DF80420012208E05CEA010206D0302266
:103540008DF804208DF8050002229046009B83F040
:10355000080353EA0A030AD15CEA010201D16207B7
:1035600005D530228DF804204FF001087F1E582821
:1035700004D034A003900EA802900DE036A0F9E725
:1035800053466046009AFFF707FB84460398825C27
:103590000298401E029002705CEA0100F0D102988D
:1035A00006A9081A00F1200A600702D524F4803425
:1035B00000E00127574502DDA7EB0A0000E00020EC
:1035C00000EB0A01009005984144401A0590E00381
:1035D00006D45B462146179A059800F0B3F90544D6
:1035E000002706E001A85A46C05D179990476D1C58
:1035F0007F1C4745F6DBE0030CD55B462146179A56
:10360000059800F09FF9054404E030205A461799C8
:1036100090476D1C0099481E00900029F5DC08E0D9
:10362000029802995A460078491C029117999047CE
:103630006D1CBAF10001AAF1010AF1DC65E100009C
:103640000928010030313233343536373839616278
:10365000636465660000000030313233343536373C
:1036600038394142434445460000000000F058F913
:103670000544761C307800287FF4ECAD19B028465C
:10368000BDE8F08F620700D4062709F1070222F097
:10369000070CFCE80223E14603F000485FEA080C4F
:1036A00002D00FF2702C0DE05FEA045C02D50FF23D
:1036B000682C07E05FEAC47C02D00FF2602C01E0C6
:1036C000AFF2700C4FF0FF3823F00043CDF850C03C
:1036D00065280CD006DC452809D046281DD047288F
:1036E0003DD13DE0662818D067287ED138E0002122
:1036F000112F01DB112000E0781CCDE9000106A9A3
:103700000EA8FFF7EDFCDDE90F010E9A03910021F1
:10371000009207F1010A04914DE04FF0004000973C
:10372000CDE9011006A90EA8FFF7DAFCDDE90F02CA
:1037300003920E9B11990022DDF80CA000930492D5
:1037400011B9791C00EB010AB7EB0A0004D4C0F1EF
:10375000FF3007F1010A0490AAEB0700019044E052
:10376000012F00DA01270021112F01DD112000E0D7
:103770003846CDE9000106A90EA8FFF7B1FCDDE946
:103780000F010E9A0391002104910092BA4621077D
:103790000CD40399514500DA8A46BAF1010F05DDD0
:1037A000009AAAF10101515C302908D0B84202DA2E
:1037B00010F1040F06DA0121CDE9011015E0AAF19C
:1037C0000101E9E7002805DC049901440491AAEB12
:1037D000000102E0411C514500DD8A460499401A6F
:1037E000401C01904FF000400290200704D4019843
:1037F000504501DBCDF8048000208DF84F00029881
:103800000DF14F07B0F1004F25D02B200E900298FC
:103810004FF0020800280CDA404202902D200E9052
:1038200007E00A210298FFF7A1F93031029007F86A
:10383000011DB8F10001A8F10108F2DC029800288E
:10384000EFD1791E0E980870307800F0200040F01B
:10385000450007F8020D12A8C01B00F107081498D4
:10386000007800B1012000EB0A01019801EBE07142
:1038700005984144401A401E0590E00306D45B467B
:103880002146179A059800F05DF8054414980078D1
:1038900018B15A46179990476D1CE00324D55B4632
:1038A0002146179A059800F04DF805441CE004984D
:1038B000002807DBDDE90301884203DD0098405C56
:1038C000179901E0179930205A469047049805F15E
:1038D0000105401C04900198401E019004D12E2047
:1038E0005A46179990476D1CBAF10001AAF1010AD6
:1038F000DDDC05E017F8010B5A46179990476D1C5F
:10390000B8F10001A8F10108F4DC5B462146179AE2
:103910000598ABE62D0000002B0000002000000001
:103920002DE9F041044600251E461746880404D4BC
:1039300005E039462020B0476D1C641EF9D52846A5
:10394000BDE8F0812DE9F041044600251E46904671
:10395000C80301D5302700E02027880404D505E0FE
:1039600041463846B0476D1C641EF9D52846BDE86F
:10397000F0810000943900080000002034000000AD
:10398000C0300008C83900083400002014040000CA
:10399000D030000800A24A0400000000000000002F
:1039A00001020304060708090000000001020304E5
:1039B00001020304060708090204060800000000CB
:0839C0000000000000000000FF
:0400000508000131BD
:00000001FF
